:1000000012C02BC02AC029C028C027C026C043C0A8
:1000100024C023C022C021C020C01FC01EC01DC0DC
:100020001CC01BC01AC011241FBECFEDCDBF10E0F5
:10003000A0E6B0E0E6E0F6E003C0C89531960D9288
:10004000A039B107D1F710E0A0E9B0E001C01D92DE
:10005000A93CB107E1F78DD0D5C2D2CF482F592F97
:1000600020E030E0E8E8F3E106C08E2F9F2F0197F3
:10007000F1F72F5F3F4F24173507B9F708955D9BC0
:10008000FECF8CB9089588E98AB986E283B912B89F
:1000900083E389B908951F920F920FB60F9211242E
:1000A0008F939F93EF93FF9380919F00883240F04E
:1000B00010929F0080EA90E09093950080939400C6
:1000C00080919600882351F010929F0080EA90E082
:1000D00090939500809394001092960080919F00D9
:1000E0008F5F80939F0081E080939300E091940064
:1000F000F09195008CB18083E0919400F09195008F
:100100003196F0939500E093940031971182C19B52
:1001100002C0C19801C0C19AFF91EF919F918F9148
:100120000F900FBE0F901F901895F92FE82F80E0C9
:1001300002C08227319620812223D9F7992708957A
:10014000C09810929200109291000895C09A81E098
:1001500090E090939200809391000895F92FE82FFA
:1001600004C05D9BFECF8CB9319680818823C9F78E
:1001700008956F927F928F929F92AF92BF92CF928B
:10018000DF92EF92FF920F931F93CF93DF93CDB740
:10019000DEB7A8970FB6F894DEBF0FBECDBF8FEFC6
:1001A00087BBC19AC09880EA90E0909395008093B5
:1001B00094001092960010929F0010929700109257
:1001C00098001092990010929A0010929B00109241
:1001D0009C0010929D0010929E0088E98AB986E2E8
:1001E00083B912B883E389B920E030E0E8E8F3E1AD
:1001F0008E2F9F2F0197F1F72F5F3F4F83E0283E0F
:100200003807B1F7C198C09A81E090E090939200CE
:1002100080939100789488249924AA24BB24CC2428
:10022000DD24EE24FF2441E0642E712C91E09987B7
:100230001A861B861C861D861E861F86188A998331
:10024000ECEFEA83FFEFFB83FC83FD83FE83FF83F8
:10025000F887F6C081E0898B1A8A1B8A1C8A1D8A5E
:100260001E8A1F8A188E098591E0090FE9850E17ED
:1002700008F080E01A85FA891F0FA1E09A85191706
:1002800008F0A0E0810F91E0811708F090E0A92B21
:10029000182F2B85EB892E0FB1E0FB852F1708F067
:1002A000B0E08A2F820F91E0821708F090E0B92B1E
:1002B000282F3C858C89380FA1E09C85391708F0E0
:1002C000A0E08B2F830F91E0831708F090E0A92B1B
:1002D000382F4D85ED894E0FB1E0FD854F1708F0A1
:1002E000B0E08A2F840F91E0841708F090E0B92BDA
:1002F000482F5E858E89580FA1E09E85591708F01A
:10030000A0E08B2F850F91E0851708F090E0A92BD6
:10031000582F6F85EF896E0FB1E0FF856F1708F0DA
:10032000B0E09A2F960F81E0961708F080E08B2BB3
:10033000692F7889988D790F870F09871A872B87FE
:100340003C874D875E876F87888BE1E0E98F1A8E47
:100350001B8E1C8E1D8E1E8E1F8E18A20981F1E031
:100360000F0F81E09981091708F080E01A81EA8D6A
:100370001E0FA1E0FA811F1708F0A0E0810F91E0A5
:10038000811708F090E0A92B182F2B818B8D280F57
:10039000B1E09B81291708F0B0E08A2F820F91E02D
:1003A000821708F090E0B92B282F3C81EC8D3E0F8E
:1003B000A1E0FC813F1708F0A0E08B2F830F91E0B4
:1003C000831708F090E0A92B382F4D818D8D480FB1
:1003D000B1E09D81491708F0B0E08A2F840F91E0C9
:1003E000841708F090E0B92B482F5E81EE8D5E0FE8
:1003F000A1E0FE815F1708F0A0E08B2F850F91E050
:10040000851708F090E0A92B582F6F818F8D680F0A
:10041000B1E09F81691708F0B0E09A2F960F81E054
:10042000961708F080E08B2B7885E8A17E0F870F68
:1004300009831A832B833C834D835E839F83888744
:1004400080919300882379F010929300C09A8824B9
:100450009924AA24BB24CC24DD24EE24FF2431E0FB
:10046000632E712C9DC0F1E0F9A31AA21BA21CA25D
:100470001DA21EA21FA218A621E0280DB1E028157A
:1004800008F0B0E03AA1390DA1E0391508F0A0E07C
:10049000EB2FE30FF1E0E31708F0F0E0AF2B3E2F76
:1004A0004BA14A0DB1E04A1508F0B0E0EA2FE40F85
:1004B000F1E0E41708F0F0E0BF2B4E2F5CA15B0DDC
:1004C000A1E05B1508F0A0E0EB2FE50FF1E0E517E8
:1004D00008F0F0E0AF2B5E2F6DA16C0DB1E06C1554
:1004E00008F0B0E0EA2FE60FF1E0E61708F0F0E0E0
:1004F000BF2B6E2F7EA17D0DA1E07D1508F0A0E041
:10050000EB2FE70FF1E0E71708F0F0E0AF2B7E2FBD
:100510008FA18E0DB1E08E1508F0B0E0FA2FF80F24
:10052000E1E0F81708F0E0E0AE2FAB2B98A59F0DA7
:10053000A90F822E932EA42EB52EC62ED72EEF2EC7
:10054000FA2E1A16F8F0AA2359F51F16D8F0FF2331
:1005500039F51716B8F0772319F5161698F06623B3
:10056000F9F4151678F05523D9F48DE2841750F07C
:100570004817B1F496EC931728F0391789F4E0EC9A
:10058000E21770F4C09820EC822E96EC992E8DE242
:10059000A82EBB24CC24DD24EE24FF24662477245B
:1005A00029853A853F7740E050E060E070E080E0E8
:1005B00090E0E22FE32BE42BE52BE62BE72BE82B57
:1005C000E92B31F46114710411F0C19801C0C19A92
:1005D00029813A813F7740E050E060E070E080E0C0
:1005E00090E0E22FE32BE42BE52BE62BE72BE82B27
:1005F000E92B09F02FCE6114710411F0C19A2ACEB3
:06060000C19828CEFFCFD7
:1006060050046832303E0050046832313F005004D6
:10061600683B282F005004683B21260068113B23C5
:10062600623048616C6C6F2044616D69616E7B005D
:00000001FF
